:1000000008308A0000280000FF00030E8301A100D1
:100010000A08A0008A010408A2007708A300780853
:10002000A4007908A5007A08A6007B08A70083131E
:1000300083128B1E1D280B193028220884002308E8
:10004000F7002408F8002508F9002608FA00270818
:10005000FB0020088A00210E8300FF0E7F0E09009E
:100060008A110A12AC2A0A108A100A11820728344F
:100070000C34013406340A108A100A1182070C3439
:1000800000340A108A100A118207543465346D3422
:1000900070343A3420342534663400340A108A101F
:1000A0000A11820753346534743450346F34693420
:1000B0006E3474343A342034253432342E343234AD
:1000C00066342034433400340A108A100A1182073F
:1000D0004534723472346F3472343A3420342534F7
:1000E00032342E34323466342034433400340A102F
:1000F0008A100A118207753428346C3465347934D7
:10010000203443346F346E3429343A342034253467
:100110006C34643400348030831C91288316DC06F0
:1001200083128316E101E2015808E0005C08E00652
:10013000570803197F29DF00F7005B080319882996
:10014000DF0203192429031CE2285C08E500E517F7
:100150005D08E4005E08E300E2010310E50CE40C36
:10016000E30CE20CDF0BAC28E01FB92861149C29DA
:1001700061105F106116DA3084008313B1296112B7
:10018000E01BCC285F1CD728E50CE40CE30CE20C48
:10019000F70A03199729D728E51BDA280310E20D7F
:1001A000E30DE40DE50DF70303199729CC2861173A
:1001B000442961135808E000E01FE028E517902962
:1001C000E51390295B08DF00F7005708DF025808A5
:1001D000E500E5175908E4005A08E300E2010310BE
:1001E000E50CE40CE30CE20CDF0BEE28E01FFB282F
:1001F000E1149C29E1105F10E116DE3084008313C6
:10020000B129E112E01B0E295F1C1929E50CE40C51
:10021000E30CE20CF70A031997291929E51B1C299D
:100220000310E20DE30DE40DE50DF7030319972923
:100230000E29E1174429E1135C08E000E01F2229A0
:10024000E5179029E51390295C08E500E5175D089E
:10025000E4005E08E300E01F3129E51361159C29E5
:100260006111E2015F10DA3084008313B129E01BD1
:100270005A295808E0005F1C4429E50CE40CE30C03
:10028000E20CF70A03199729E21F5529E30A031D17
:100290005529E40A031D5529E50A031D5529E50CD6
:1002A000E40CE30CF70A03199729611BD928E11B19
:1002B0001B2979298030E506E51F62299C295C0805
:1002C000E0006F295808E000E508031D6F29E408E5
:1002D000031D6F29E308031D6F29F7019029E51B12
:1002E00079290310E20DE30DE40DE50DF70B6F29FD
:1002F0009729E01F7D29E5179029E51390295B08D0
:10030000F7005C08E5005D08E4005E08E300902962
:100310005708F7005808E5005908E4005A08E300B8
:100320006508F8006408F9006308FA00CF29F701AE
:10033000F801F901FA01CF29E201E309E409E5092D
:10034000E209E20A031DAA29E30A031DAA29E40A15
:100350000319E50A6118B828E118FA28611930294B
:100360005F290008E307031CBB29E40A031DBB291E
:10037000E50A03195F1484030008E407031CC3297A
:10038000E50A03195F1484030008801F803AE5071B
:1003900003185F14611ABF28E11A01293729831253
:1003A0000034831657080319422ADF005B0803193B
:1003B000422ADF070318E3297F30DF02031C422AA9
:1003C0000319422AE7298130DF070318422A5F0810
:1003D000F700F801F901FA015808E300E31759089A
:1003E000E2005A08E1001830DF00E001611C102A29
:1003F0005E08FA07031C022AF90A031D022AF80AFA
:100400000319E0175D08F907031C092AF80A031904
:10041000E0175C08D900D9175908F8070318E01746
:10042000E00DF80CF90CFA0CE30CE20CE10C0310F3
:10043000DF0BF5290130F7070318422AF81B272A9A
:10044000E30DFA0DF90DF80DF7030319422AE31F26
:10045000382AFA0A031D382AF90A031D382AF80A2D
:10046000031D382AF80CF90CFA0CF70A0319422A72
:100470005808E0005C08E006E01F402AF817462A0A
:10048000F813462AF701F801F901FA018312003442
:1004900083165008D7005408D706D71F542A0311D3
:1004A0000310D01B0314872A5008D7005308D80024
:1004B0004F08D8020319622AD71F872A0308013A76
:1004C0008300872A5408D8005008D80203196E2ADE
:1004D000D71F872A0308013A8300872A5508D800C6
:1004E0005108D80203197A2AD71F872A0308013A2C
:1004F0008300872A5608D8005208D8020319862A92
:10050000D71F872A0308013A8300872A0310831222
:1005100000348E30F70083164F08F7025008F900B8
:100520005108F800F917F7080319A12A0310F90870
:10053000031D9D2AF8080319A12AF90CF80CF70BE2
:10054000962AD01FA82AF809F909F80A0319F90A06
:1005500083128A110A12F92BAA03F6308100AA0825
:10056000031DB52A2730AA00AB0A2B0B282CAB01A0
:100570008316081001308312880683143708831607
:10058000DA00831236088316D900831235088316E1
:10059000D800831234088316D700831233088316D9
:1005A000DE00831232088316DD00831231088316C1
:1005B000DC00831230088316DB0083128B207A085C
:1005C000BB007908BA007808B9007708B8005B0862
:1005D0008316DA0083125A088316D9008312590849
:1005E0008316D800831258088316D70083123B085D
:1005F0008316DE0083123A088316DD008312390861
:100600008316DC00831238088316DB008312D121A5
:1006100083104B088316DA0083124A088316D90028
:10062000831249088316D800831248088316D7001E
:100630007A08DE007908DD007808DC007708DB0046
:1006400083128B2077088316CF007808D0007908B2
:10065000D1007A08D20083125F088316DA00831271
:100660005E088316D90083125D088316D8008312B2
:100670005C088316D70083123F088316DE008312BE
:100680003E088316DD0083123D088316DC008312CA
:100690003C088316DB008312D12183108316520895
:1006A000DA005108D9005008D8004F08D7007A085E
:1006B000DE007908DD007808DC007708DB008312B3
:1006C0008B2077088316D3007808D4007908D500EA
:1006D0007A08D600831263088316DA008312620850
:1006E0008316D900831261088316D800831260082C
:1006F0008316D700831243088316DE008312420854
:100700008316DD00831241088316DC008312400843
:100710008316DB008312D121831083165608DA007A
:100720005508D9005408D8005308D7007A08DE00CD
:100730007908DD007808DC007708DB0083128B2065
:100740007A08C7007908C6007808C5007708C40091
:100750008316D201D1017A30D0008830CF008312C5
:1007600047088316D600831246088316D5008312E5
:1007700045088316D400831244088316D3008312DD
:1007800048220318C52B031DCB2BC701C6017A30A5
:10079000C5008830C40047088316D200831246087B
:1007A0008316D100831245088316D00083124408B3
:1007B0008316CF00D601D501D401D301831248227C
:1007C0000318E42B031DE82BC701C601C501C401B2
:1007D00047088316D200831246088316D10083127D
:1007E00045088316D000831244088316CF00831275
:1007F000892A7908AF007808AE003F08C3003E0898
:10080000C2003D08C1003C08C0003B08BF003A08D8
:10081000BE003908BD003808BC004708CB004608B8
:10082000CA004508C9004408C8002F08F9002E086E
:10083000F800F90CF80CF90CF80CF90C7808950094
:10084000F90C790C3039F7001708CF397704970085
:100850000B118A110A121D28C3308400831300086B
:100860000319402C0130F800F701F70B352CF80B79
:10087000342C4A30F700F70B3B2C3E2C800B322CEB
:1008800000348316490EF039F7000F308312060545
:1008900077048600000006144D2C061000348610E4
:1008A000F03083168600831206150000061400003F
:1008B0000608060E0F398316C900831206100000C1
:1008C000061400000608060E0F398316C8008312AE
:1008D0000610003083168600490EF700F030F70549
:1008E00077084804F8007808C800C81F792C8312DC
:1008F000502C46187E2C831286108316461C832C9F
:10090000831286148316000083120611000006105D
:100910008316470EC8000F30C8054808C900831267
:100920004124831647080F39C800C90083124124A7
:1009300000340030831686008312861006110610DC
:100940000F308316C30083122C2401308316B000AD
:100950003008033C031CB82C0330C9008312412427
:1009600005308316C30083122C248316B00AA82CEA
:100970000230C900831241248316B0013008033CC1
:10098000031CCF2C3008831233208316B100C6011C
:100990003108C70083124F248316B00ABE2C83127D
:1009A0008A150A12AC28013083164402FC3E031853
:1009B000ED2C043E8312F62C80308316C500ED2CFE
:1009C000C0308316C500ED2C94308316C500ED2C85
:1009D000D4308316C500ED2C831601304302C507C1
:1009E000C6014508C70083124F2400340A108A103C
:1009F0000A158207DC2CE02CE42CE82C8316420834
:100A00000C3A831203190B2D063A0319192D023AD9
:100A10000319242D2B2D8316C6010130C700831224
:100A20004F240130A90002308316C30083122C2406
:100A3000332DA90A01308316C300831229088316B7
:100A4000C4008312D324332D8316C6011030C7008F
:100A500083124F24332D01308316C6004208C7008D
:100A600083124F24332D003483163C080319FA2DCA
:100A7000C80040080319FA2DC802031C442D7F301A
:100A8000C8070318FA2D4A2D8130C802031CFA2D1D
:100A90000319FA2D4808F700F801F901FA01C70116
:100AA0003D08C600C6173E08C5003F08C4001930FF
:100AB000C8004308C40203186D2D0130C502031895
:100AC0006D2DC60203186D2DC70203186D2DC70AC0
:100AD000C60AC50A4308C4079F2D4208C502031869
:100AE000882D0130C6020318882DC7020318882DEF
:100AF000C70AC60A4208C5074308C407031C9F2D3E
:100B0000C50A031D9F2DC60A031D9F2DC70A9F2DD1
:100B100041088038C60203189E2D0130C702031811
:100B20009E2DC70A41088038C6074208C507031C26
:100B30007C2DC60A031D7C2DC70A7C2D7A14C80B98
:100B4000A22DAD2D0310C40DC50DC60DC70D03108C
:100B5000FA0DF90DF80DC90D592D491CB52D0310CD
:100B6000F80CF90CFA0CC90CB82DF7030319FA2D7F
:100B7000C91BE12D0310C40DC50DC60DC70D4308DB
:100B8000C4020318CD2D0130C5020318CD2DC602B5
:100B90000318CD2DC702031CF02D4208C50203180F
:100BA000D82D0130C6020318D82DC702031CF02D22
:100BB00041088038C6020318E12D0130C702031C2A
:100BC000F02DFA0A031DF02DF90A031DF02DF80A85
:100BD000031DF02DF70A0319FA2DF80CF90CFA0C85
:100BE0003D08C8004108C806C81FF82DF817FE2D9B
:100BF000F813FE2DF701F801F901FA018312003410
:100C00008E30F70083163108F8003008F900FA0139
:100C1000F808031D152E7908F800F9010830F702CD
:100C2000F808031D152EF7011D2E0310F81B1C2EAE
:100C3000F90DF80DF703152EF81383128A150A1211
:100C40008C2B83164208B63CC200FA014308C6004A
:100C5000C3170310C30CC40CC50CFA0CF90CF80C28
:100C6000F70CC20B292EC61F402EF709F809F90907
:100C7000FA09F70A0319F80A0319F90A0319FA0A13
:100C800083128A110A12BC2EF701F801F901FA0148
:100C90008316CA01CB01CC01CD01490848044704A1
:100CA00046040319832E2030CE000310C20DC30D5D
:100CB000C40DC50DCA0DCB0DCC0DCD0D49084D028F
:100CC000031D6C2E48084C02031D6C2E47084B0276
:100CD000031D6C2E46084A02031C7D2E4608CA02DC
:100CE0004708031C470FCB024808031C480FCC02DF
:100CF0004908031C490FCD020314F70DF80DF90D37
:100D0000FA0DCE0B552ECA308400831383120034A3
:100D100004088316BA003908BC000319B22E8312E6
:100D2000A8018B1BA8178B1383163808DA00370825
:100D3000D9003608D8003508D700DE01DD012030A3
:100D4000DC008230DB008312D121A81B8B177A08CC
:100D50008316B8007908B7007808B6007708B500A0
:100D6000BC0B8F2E3808C5003708C4003608C300F6
:100D70003508C2008312212E7A088316B80079083C
:100D8000B7007808B6007708B500B81FD42EBA03AC
:100D9000BA16B509B609B709B809B50A0319B60AEA
:100DA0000319B70A0319B80A3B30C1009A30C000D2
:100DB000CA30BF00BE010A30BC0039080319BA0AA4
:100DC0003808C5003708C4003608C3003508C2001B
:100DD0004108C9004008C8003F08C7003E08C600D7
:100DE0008312442600088316B500840A0008B60062
:100DF000840A0008B700840A0008B800FD308407A0
:100E0000F708031D162F390A3C020319162F3A085A
:100E10000319182F0F393C020319102F0318502FF4
:100E2000BA1B502F3A1B182F20304A2F2030BA05FA
:100E3000BA1E282FBA123908031DBA037708BA0060
:100E40002D30C2008312FE2483163A08F700BA013F
:100E500039083C02031D382F7708BA002E30C20033
:100E60008312FE2483163A08F7002030BA050030BA
:100E70003030BA1E4A2FBA123908031DBA03770858
:100E8000BA002D30C2008312FE2483163A08F70000
:100E9000BA013030F7077708C2008312FE248316A8
:100EA0004108C5004008C4003F08C3003E08C20016
:100EB000C901C801C7010A30C600831244267A0856
:100EC0008316C1007908C0007808BF007708BE000B
:100ED000BC0BE02E831200348316B9010408B8005D
:100EE0003910831B3914B21F7D2FB817381EB80A6A
:100EF000B109B209B10A0319B20A320EF038B400CE
:100F0000B407E23EB500323EB70032080F39B507EC
:100F1000B507B707E93EB600B607B607310E0F3979
:100F2000B607B707B60DB70DB709B70D31080F39BA
:100F3000B707B40D0730B3000A30B707B603031C78
:100F40009D2FB607B503031CA12FB507B403031CDF
:100F5000A52FB407B303031CA92FB3308400831358
:100F600007303805381384033805031DBE2F381A9F
:100F7000840A381ABE2F2030F700DB2F8407B730E1
:100F80000402031938170008F700031DCF2F381B80
:100F9000CF2F381AEB2FB819CF2F2030DA2FB81FE8
:100FA000D72F2D30F70084033813B813DB2FB81573
:100FB00038123030F707B2010408B1003210831B39
:100FC00032147708C2008312FE248316310884008D
:100FD000831332188317840A381FBF2F83128A1590
:040FE0000A120D2DB7
:10100000840183131F308305831603170908C03931
:10101000890003131F129F12003003178800F91272
:1010200079160430FB00FA00031305080638850022
:101030000708FD39870027308312AA00AB01AE01F3
:10104000AF01B001B101B201B3018930B4003B304E
:10105000B5008030B600B701B801B901BA01BB01D3
:10106000BC01BD01BE01BF01C001C101C201C3017C
:10107000C401C501C601C701C801C901CA01CB012C
:101080007B30E4004C30E500CC30E600CD30E700AA
:101090008430E8005630E900EA01EB018230EC00D0
:1010A0002030ED00EE01EF017F30F000F101F201A0
:1010B000F301FF30F400003083168700F40088004D
:1010C000F800053883129200F930831692007411EB
:1010D00074088700831207110C30970083169B0158
:1010E00083129501831603170908C0398900031379
:1010F0001F129F1200300138031788008312031358
:101100001F179F1783169F1783121F140030F800B4
:101110001F08C33978049F00F630810003170510BB
:101120000730F700F71D9F28073003138101813036
:10113000840083130008C0390F388000031764004F
:10114000813084000008C0397704800003138B16B7
:10115000C0308B048A11992C8A158316B00130088F
:101160008A1183123B208A1500380319C12883167F
:10117000B00AC2008A118312FE248A158316AF2892
:101180008312A8018B1BA8178B139A308316DA00E1
:101190009930D9001930D8007F30D70083126F08FA
:1011A0008316DE0083126E088316DD0083126D083D
:1011B0008316DC0083126C088316DB008A1183120D
:1011C000D1218A15A81B8B1777088316B0007808E1
:1011D000B1007908B2007A08B3008312A8018B1B12
:1011E000A8178B136B088316DA0083126A0883161C
:1011F000D900831269088316D80083126808831601
:10120000D7007308DE007208DD007108DC0070088A
:10121000DB008A118312D1218A15A81B8B17831634
:101220003308BF003208BE003108BD003008BC00E2
:101230007A08C3007908C2007808C1007708C000A6
:101240008A11831234258A157A08CF007908CE00D6
:101250007808CD007708CC00A8018B1BA8178B134A
:101260008316DA01D901D8018030D7007308DE0077
:101270007208DD007108DC007008DB008A1183123F
:10128000D1218A15A81B8B177A08D3007908D200C0
:101290007808D1007708D000A8018B1BA8178B1302
:1012A0008316DA01D901D8017E30D7007308DE0039
:1012B0007208DD007108DC007008DB008A118312FF
:1012C000D1218A15A81B8B177A08D7007908D60078
:1012D0007808D5007708D400A8018B1BA8178B13BA
:1012E0008316DA01D901D8018030D7008312530860
:1012F0008316DE00831252088316DD008312510824
:101300008316DC00831250088316DB008A118312D7
:10131000D1218A15A81B8B1767088316BF0083127B
:1013200066088316BE00831265088316BD0083120B
:1013300064088316BC007A08C3007908C2007808E4
:10134000C1007708C0008A11831234258A158310E2
:10135000A8018B1BA8178B138316DA01D901D801BA
:101360007F30D7007A08DE007908DD007808DC00DD
:101370007708DB008A1183128B208A15A81B8B1734
:1013800077088316B0007808B1007908B2007A08AF
:10139000B300831257088316BF00831256088316C2
:1013A000BE00831255088316BD00831254088316AD
:1013B000BC00831267088316C30083126608831675
:1013C000C200831265088316C10083126408831665
:1013D000C0008A11831234258A158310A8018B1B43
:1013E000A8178B1383163308DA003208D9003108A6
:1013F000D8003008D7007A08DE007908DD007808C8
:10140000DC007708DB008A1183128B208A15A81B69
:101410008B17A8018B1BA8178B134F088316DA00B4
:1014200083124E088316D90083124D088316D80004
:1014300083124C088316D7007A08DE007908DD0095
:101440007808DC007708DB008A118312D1218A1525
:10145000A81B8B177A08DB007908DA007808D90016
:101460007708D8004C088316B00083124D08803AE4
:101470008316B10083124E088316B20083124F0800
:101480008316B3008312A8018B1BA8178B13831636
:10149000DA01D901D8018030D700831253088316AE
:1014A000DE00831252088316DD0083125108831672
:1014B000DC00831250088316DB008A118312D121CD
:1014C0008A15A81B8B1767088316BF00831266084E
:1014D0008316BE00831265088316BD00831264085C
:1014E0008316BC007A08C3007908C2007808C100DE
:1014F0007708C0008A11831234258A158314A80145
:101500008B1BA8178B138316DA01D901D8017F3002
:10151000D7007A08DE007908DD007808DC0077085B
:10152000DB008A1183128B208A15A81B8B17770882
:101530008316B4007808B5007908B6007A08B700B9
:101540008312A8018B1BA8178B138316DA01D9010C
:10155000D8018030D700831257088316DE0083122B
:1015600056088316DD00831255088316DC008312AB
:1015700054088316DB008A118312D1218A15A81B17
:101580008B1777088316B8007808B9007908BA0075
:101590007A08BB00BF003A08BE003908BD00380811
:1015A000BC00831267088316C30083126608831683
:1015B000C200831265088316C10083126408831673
:1015C000C0008A11831234258A158310A8018B1B51
:1015D000A8178B1383163708DA003608D9003508A8
:1015E000D8003408D7007A08DE007908DD007808D2
:1015F000DC007708DB008A1183128B208A15A81B78
:101600008B17A8018B1BA8178B1383163308DA00DE
:101610003208D9003108D8003008D7007A08DE0037
:101620007908DD007808DC007708DB008A11831276
:10163000D1218A15A81B8B177A08DF007908DE00F4
:101640007808DD007708DC00A8018B1BA8178B1336
:101650004F088316DA0083124E088316D9008312CE
:101660004D088316D80083124C088316D7008312C6
:1016700057088316DE00831256088316DD00831296
:1016800055088316DC00831254088316DB008A1188
:101690008312D1218A15A81B8B1777088316B000F7
:1016A0007808B1007908B2007A08B300BF003208A8
:1016B000BE003108BD003008BC00831267088316E5
:1016C000C300831266088316C2008312650883165E
:1016D000C100831264088316C0008A118312342566
:1016E0008A157A08E3007908E2007808E1007708B3
:1016F000E0009F149F187A2B83161E088312AC00FB
:101700001E08AD002D088316B10083122C08831625
:10171000B0008A118312002E8A15A8018B1BA8170E
:101720008B137A088316DA007908D9007808D80074
:101730007708D700DE014030DD001C30DC008B3044
:10174000DB008A118312D1218A15A81B8B17770819
:101750008316B0007808B1007908B2007A08B300A7
:10176000BF003208BE003108BD003008BC00C30114
:10177000C201C1018930C0008A11831234258A1543
:101780007A08B3007908B2007808B1007708B00091
:1017900001308316C300C4008A118312D3248A1532
:1017A00033088316BF00831232088316BE008312EB
:1017B00031088316BD00831230088316BC00C301B4
:1017C000C2012030C1008230C0008A11831234254A
:1017D0008A1577088316B0007808B1007908B2003E
:1017E0007A08B300B40134088A11831241208A15A3
:1017F0008316B40AF700C2008A118312FE248A15E8
:10180000063083163402031DF32B8930840033081D
:10181000B8003208B7003108B6003008B500023011
:10182000B9008A11831288268A1501308316C300F5
:101830000230C4008A118312D3248A153708831614
:10184000BF00831236088316BE0083123508831644
:10185000BD00831234088316BC00C301C2012030CE
:10186000C1008230C0008A11831234258A1577089E
:101870008316B0007808B1007908B2007A08B30086
:10188000B40134088A1183124E208A158316B40AD3
:10189000F700C2008A118312FE248A150A308316CB
:1018A0003402031D412C893084003308B80032080B
:1018B000B7003108B6003008B5000230B9008A110F
:1018C000831288268A1520308316C2008A1183125B
:1018D000FE248A1543308316C2008A118312FE2427
:1018E0008A1503308316B5002030C2008A11831296
:1018F000FE248A158316B50B742C0130C300033007
:10190000C4008A118312D3248A153B088316BF00B2
:1019100083123A088316BE00831239088316BD006D
:10192000831238088316BC00C301C2012030C100F5
:101930008230C0008A11831234258A1577088316F5
:10194000B0007808B1007908B2007A08B300B40199
:1019500034088A11831264208A158316B40AF700AA
:10196000C2008A118312FE248A15073083163402BE
:10197000031DA82C893084003308B8003208B70052
:101980003108B6003008B5000230B9008A11831260
:1019900088268A1520308316C2008A118312FE24FD
:1019A0008A1543308316C2008A118312FE248A15D9
:1019B00003308316B5002030C2008A118312FE2442
:1019C0008A158316B50BDB2C0130C3000430C4002C
:1019D0008A118312D3248A158316B00130088A1124
:1019E000831277208A158316B00AF700C2008A1185
:1019F0008312FE248A150C3083163002031DEE2C50
:101A00001030840083122F088316B20083122E0830
:101A10008316B1008A1183126C2F8A150330831646
:101A2000B1002030C2008A118312FE248A15831669
:0A1A3000B10B112D8312792B630016
:04400E00E12CFF3F63
:00000001FF
;PIC16F887
